{
    "_format": "hh-sol-artifact-1",
    "contractName": "Web3RSVP",
    "sourceName": "contracts/Web3RSVP.sol",
    "abi": [
        {
            "anonymous": false,
            "inputs": [
                {
                    "indexed": false,
                    "internalType": "bytes32",
                    "name": "eventId",
                    "type": "bytes32"
                },
                {
                    "indexed": false,
                    "internalType": "address",
                    "name": "attendeeAddress",
                    "type": "address"
                }
            ],
            "name": "ConfirmedAttendee",
            "type": "event"
        },
        {
            "anonymous": false,
            "inputs": [
                {
                    "indexed": false,
                    "internalType": "bytes32",
                    "name": "eventId",
                    "type": "bytes32"
                }
            ],
            "name": "DepositsPaidOut",
            "type": "event"
        },
        {
            "anonymous": false,
            "inputs": [
                {
                    "indexed": false,
                    "internalType": "bytes32",
                    "name": "eventId",
                    "type": "bytes32"
                },
                {
                    "indexed": false,
                    "internalType": "address",
                    "name": "creatorAddress",
                    "type": "address"
                },
                {
                    "indexed": false,
                    "internalType": "uint256",
                    "name": "eventTimestamp",
                    "type": "uint256"
                },
                {
                    "indexed": false,
                    "internalType": "uint256",
                    "name": "maxCapacity",
                    "type": "uint256"
                },
                {
                    "indexed": false,
                    "internalType": "uint256",
                    "name": "deposit",
                    "type": "uint256"
                },
                {
                    "indexed": false,
                    "internalType": "string",
                    "name": "eventDataCID",
                    "type": "string"
                }
            ],
            "name": "NewEventCreated",
            "type": "event"
        },
        {
            "anonymous": false,
            "inputs": [
                {
                    "indexed": false,
                    "internalType": "bytes32",
                    "name": "eventId",
                    "type": "bytes32"
                },
                {
                    "indexed": false,
                    "internalType": "address",
                    "name": "attendeeAddress",
                    "type": "address"
                }
            ],
            "name": "NewRSVP",
            "type": "event"
        },
        {
            "inputs": [
                {
                    "internalType": "bytes32",
                    "name": "eventId",
                    "type": "bytes32"
                }
            ],
            "name": "confirmAllAttendees",
            "outputs": [],
            "stateMutability": "nonpayable",
            "type": "function"
        },
        {
            "inputs": [
                {
                    "internalType": "bytes32",
                    "name": "eventId",
                    "type": "bytes32"
                },
                {
                    "internalType": "address",
                    "name": "attendee",
                    "type": "address"
                }
            ],
            "name": "confirmAttendee",
            "outputs": [],
            "stateMutability": "nonpayable",
            "type": "function"
        },
        {
            "inputs": [
                {
                    "internalType": "uint256",
                    "name": "eventTimestamp",
                    "type": "uint256"
                },
                {
                    "internalType": "uint256",
                    "name": "deposit",
                    "type": "uint256"
                },
                {
                    "internalType": "uint256",
                    "name": "maxCapacity",
                    "type": "uint256"
                },
                {
                    "internalType": "string",
                    "name": "eventDataCID",
                    "type": "string"
                }
            ],
            "name": "createNewEvent",
            "outputs": [],
            "stateMutability": "nonpayable",
            "type": "function"
        },
        {
            "inputs": [
                {
                    "internalType": "bytes32",
                    "name": "eventId",
                    "type": "bytes32"
                }
            ],
            "name": "createNewRSVP",
            "outputs": [],
            "stateMutability": "payable",
            "type": "function"
        },
        {
            "inputs": [
                {
                    "internalType": "bytes32",
                    "name": "",
                    "type": "bytes32"
                }
            ],
            "name": "idToEvent",
            "outputs": [
                {
                    "internalType": "bytes32",
                    "name": "eventID",
                    "type": "bytes32"
                },
                {
                    "internalType": "string",
                    "name": "eventDataCID",
                    "type": "string"
                },
                {
                    "internalType": "address",
                    "name": "eventOwner",
                    "type": "address"
                },
                {
                    "internalType": "uint256",
                    "name": "eventTimestamp",
                    "type": "uint256"
                },
                {
                    "internalType": "uint256",
                    "name": "deposit",
                    "type": "uint256"
                },
                {
                    "internalType": "uint256",
                    "name": "maxCapacity",
                    "type": "uint256"
                },
                {
                    "internalType": "bool",
                    "name": "paidOut",
                    "type": "bool"
                }
            ],
            "stateMutability": "view",
            "type": "function"
        },
        {
            "inputs": [
                {
                    "internalType": "bytes32",
                    "name": "eventId",
                    "type": "bytes32"
                }
            ],
            "name": "withdrawUnclaimedDeposits",
            "outputs": [],
            "stateMutability": "nonpayable",
            "type": "function"
        }
    ],
    "bytecode": "0x608060405234801561001057600080fd5b50611fe1806100206000396000f3fe6080604052600436106100545760003560e01c806292098c1461005957806317f0165a146100825780636dcdf2cd1461009e57806379747571146100c7578063909ef021146100f0578063acdbe01214610133575b600080fd5b34801561006557600080fd5b50610080600480360381019061007b91906110e6565b61015c565b005b61009c600480360381019061009791906111a4565b6103c9565b005b3480156100aa57600080fd5b506100c560048036038101906100c0919061122f565b6105ff565b005b3480156100d357600080fd5b506100ee60048036038101906100e991906111a4565b610ad6565b005b3480156100fc57600080fd5b50610117600480360381019061011291906111a4565b610d81565b60405161012a9796959493929190611347565b60405180910390f35b34801561013f57600080fd5b5061015a600480360381019061015591906111a4565b610e78565b005b60003330878787604051602001610177959493929190611426565b604051602081830303815290604052805190602001209050600080600083815260200190815260200160002060030154146101e7576040517f08c379a00000000000000000000000000000000000000000000000000000000081526004016101de906114d1565b60405180910390fd5b60608060405180610120016040528084815260200186868080601f016020809104026020016040519081016040528093929190818152602001838380828437600081840152601f19601f8201169050808301925050505050505081526020013373ffffffffffffffffffffffffffffffffffffffff168152602001898152602001888152602001878152602001838152602001828152602001600015158152506000808581526020019081526020016000206000820151816000015560208201518160010190816102b8919061172c565b5060408201518160020160006101000a81548173ffffffffffffffffffffffffffffffffffffffff021916908373ffffffffffffffffffffffffffffffffffffffff160217905550606082015181600301556080820151816004015560a0820151816005015560c082015181600601908051906020019061033a929190610f9a565b5060e0820151816007019080519060200190610357929190610f9a565b506101008201518160080160006101000a81548160ff0219169083151502179055509050507f2553138c3f9c9008f266dbdbe9fc64f5b71e098d06ef714a190a65a8b9fc6bf383338a898b8a8a6040516103b7979695949392919061183a565b60405180910390a15050505050505050565b6000806000838152602001908152602001600020905080600401543414610425576040517f08c379a000000000000000000000000000000000000000000000000000000000815260040161041c906118f0565b60405180910390fd5b806003015442111561046c576040517f08c379a00000000000000000000000000000000000000000000000000000000081526004016104639061195c565b60405180910390fd5b80600501548160060180549050106104b9576040517f08c379a00000000000000000000000000000000000000000000000000000000081526004016104b0906119c8565b60405180910390fd5b60005b81600601805490508160ff16101561055c573373ffffffffffffffffffffffffffffffffffffffff16826006018260ff16815481106104fe576104fd6119e8565b5b9060005260206000200160009054906101000a900473ffffffffffffffffffffffffffffffffffffffff1673ffffffffffffffffffffffffffffffffffffffff160361054957600080fd5b808061055490611a53565b9150506104bc565b5080600601339080600181540180825580915050600190039060005260206000200160009091909190916101000a81548173ffffffffffffffffffffffffffffffffffffffff021916908373ffffffffffffffffffffffffffffffffffffffff1602179055507fb79f4240bbdd272d98e02a5db7f0cf156e5fc000961c517670a26eeeec63ed9082336040516105f3929190611a7c565b60405180910390a15050565b600080600084815260200190815260200160002090508060020160009054906101000a900473ffffffffffffffffffffffffffffffffffffffff1673ffffffffffffffffffffffffffffffffffffffff163373ffffffffffffffffffffffffffffffffffffffff16146106a7576040517f08c379a000000000000000000000000000000000000000000000000000000000815260040161069e90611af1565b60405180910390fd5b600080600090505b82600601805490508160ff161015610791578373ffffffffffffffffffffffffffffffffffffffff16836006018260ff16815481106106f1576106f06119e8565b5b9060005260206000200160009054906101000a900473ffffffffffffffffffffffffffffffffffffffff1673ffffffffffffffffffffffffffffffffffffffff160361077e57826006018160ff16815481106107505761074f6119e8565b5b9060005260206000200160009054906101000a900473ffffffffffffffffffffffffffffffffffffffff1691505b808061078990611a53565b9150506106af565b508273ffffffffffffffffffffffffffffffffffffffff168173ffffffffffffffffffffffffffffffffffffffff1614610800576040517f08c379a00000000000000000000000000000000000000000000000000000000081526004016107f790611b5d565b60405180910390fd5b60005b82600701805490508160ff1610156108d9578373ffffffffffffffffffffffffffffffffffffffff16836007018260ff1681548110610845576108446119e8565b5b9060005260206000200160009054906101000a900473ffffffffffffffffffffffffffffffffffffffff1673ffffffffffffffffffffffffffffffffffffffff16036108c6576040517f08c379a00000000000000000000000000000000000000000000000000000000081526004016108bd90611bc9565b60405180910390fd5b80806108d190611a53565b915050610803565b50600015158260080160009054906101000a900460ff16151514610932576040517f08c379a000000000000000000000000000000000000000000000000000000000815260040161092990611c35565b60405180910390fd5b81600701839080600181540180825580915050600190039060005260206000200160009091909190916101000a81548173ffffffffffffffffffffffffffffffffffffffff021916908373ffffffffffffffffffffffffffffffffffffffff16021790555060008373ffffffffffffffffffffffffffffffffffffffff1683600401546040516109c190611c86565b60006040518083038185875af1925050503d80600081146109fe576040519150601f19603f3d011682016040523d82523d6000602084013e610a03565b606091505b5050905080610a565782600701805480610a2057610a1f611c9b565b5b6001900381819060005260206000200160006101000a81549073ffffffffffffffffffffffffffffffffffffffff021916905590555b80610a96576040517f08c379a0000000000000000000000000000000000000000000000000000000008152600401610a8d90611d16565b60405180910390fd5b7ff8d1583a733d83bdd3ef5464129d0a95a36d62b382d31c6d0467a61f4264381b8585604051610ac7929190611a7c565b60405180910390a15050505050565b600080600083815260200190815260200160002090508060080160009054906101000a900460ff1615610b3e576040517f08c379a0000000000000000000000000000000000000000000000000000000008152600401610b3590611d82565b60405180910390fd5b62093a808160030154610b519190611da2565b421015610b93576040517f08c379a0000000000000000000000000000000000000000000000000000000008152600401610b8a90611e22565b60405180910390fd5b8060020160009054906101000a900473ffffffffffffffffffffffffffffffffffffffff1673ffffffffffffffffffffffffffffffffffffffff163373ffffffffffffffffffffffffffffffffffffffff1614610c25576040517f08c379a0000000000000000000000000000000000000000000000000000000008152600401610c1c90611af1565b60405180910390fd5b600081600701805490508260060180549050610c419190611e42565b90506000826004015482610c559190611e76565b905060018360080160006101000a81548160ff02191690831515021790555060003373ffffffffffffffffffffffffffffffffffffffff1682604051610c9a90611c86565b60006040518083038185875af1925050503d8060008114610cd7576040519150601f19603f3d011682016040523d82523d6000602084013e610cdc565b606091505b5050905080610d035760008460080160006101000a81548160ff0219169083151502179055505b80610d43576040517f08c379a0000000000000000000000000000000000000000000000000000000008152600401610d3a90611f04565b60405180910390fd5b7f393073ea1365f611c3d2f240c992960d2b99dc81715555d3fc40fc55ba80af9c85604051610d729190611f24565b60405180910390a15050505050565b6000602052806000526040600020600091509050806000015490806001018054610daa9061154f565b80601f0160208091040260200160405190810160405280929190818152602001828054610dd69061154f565b8015610e235780601f10610df857610100808354040283529160200191610e23565b820191906000526020600020905b815481529060010190602001808311610e0657829003601f168201915b5050505050908060020160009054906101000a900473ffffffffffffffffffffffffffffffffffffffff16908060030154908060040154908060050154908060080160009054906101000a900460ff16905087565b600080600083815260200190815260200160002090508060020160009054906101000a900473ffffffffffffffffffffffffffffffffffffffff1673ffffffffffffffffffffffffffffffffffffffff163373ffffffffffffffffffffffffffffffffffffffff1614610f20576040517f08c379a0000000000000000000000000000000000000000000000000000000008152600401610f1790611f8b565b60405180910390fd5b60005b81600601805490508160ff161015610f9557610f8283836006018360ff1681548110610f5257610f516119e8565b5b9060005260206000200160009054906101000a900473ffffffffffffffffffffffffffffffffffffffff166105ff565b8080610f8d90611a53565b915050610f23565b505050565b828054828255906000526020600020908101928215611013579160200282015b828111156110125782518260006101000a81548173ffffffffffffffffffffffffffffffffffffffff021916908373ffffffffffffffffffffffffffffffffffffffff16021790555091602001919060010190610fba565b5b5090506110209190611024565b5090565b5b8082111561103d576000816000905550600101611025565b5090565b600080fd5b600080fd5b6000819050919050565b61105e8161104b565b811461106957600080fd5b50565b60008135905061107b81611055565b92915050565b600080fd5b600080fd5b600080fd5b60008083601f8401126110a6576110a5611081565b5b8235905067ffffffffffffffff8111156110c3576110c2611086565b5b6020830191508360018202830111156110df576110de61108b565b5b9250929050565b60008060008060006080868803121561110257611101611041565b5b60006111108882890161106c565b95505060206111218882890161106c565b94505060406111328882890161106c565b935050606086013567ffffffffffffffff81111561115357611152611046565b5b61115f88828901611090565b92509250509295509295909350565b6000819050919050565b6111818161116e565b811461118c57600080fd5b50565b60008135905061119e81611178565b92915050565b6000602082840312156111ba576111b9611041565b5b60006111c88482850161118f565b91505092915050565b600073ffffffffffffffffffffffffffffffffffffffff82169050919050565b60006111fc826111d1565b9050919050565b61120c816111f1565b811461121757600080fd5b50565b60008135905061122981611203565b92915050565b6000806040838503121561124657611245611041565b5b60006112548582860161118f565b92505060206112658582860161121a565b9150509250929050565b6112788161116e565b82525050565b600081519050919050565b600082825260208201905092915050565b60005b838110156112b857808201518184015260208101905061129d565b60008484015250505050565b6000601f19601f8301169050919050565b60006112e08261127e565b6112ea8185611289565b93506112fa81856020860161129a565b611303816112c4565b840191505092915050565b611317816111f1565b82525050565b6113268161104b565b82525050565b60008115159050919050565b6113418161132c565b82525050565b600060e08201905061135c600083018a61126f565b818103602083015261136e81896112d5565b905061137d604083018861130e565b61138a606083018761131d565b611397608083018661131d565b6113a460a083018561131d565b6113b160c0830184611338565b98975050505050505050565b60008160601b9050919050565b60006113d5826113bd565b9050919050565b60006113e7826113ca565b9050919050565b6113ff6113fa826111f1565b6113dc565b82525050565b6000819050919050565b61142061141b8261104b565b611405565b82525050565b600061143282886113ee565b60148201915061144282876113ee565b601482019150611452828661140f565b602082019150611462828561140f565b602082019150611472828461140f565b6020820191508190509695505050505050565b7f414c524541445920524547495354455245440000000000000000000000000000600082015250565b60006114bb601283611289565b91506114c682611485565b602082019050919050565b600060208201905081810360008301526114ea816114ae565b9050919050565b7f4e487b7100000000000000000000000000000000000000000000000000000000600052604160045260246000fd5b7f4e487b7100000000000000000000000000000000000000000000000000000000600052602260045260246000fd5b6000600282049050600182168061156757607f821691505b60208210810361157a57611579611520565b5b50919050565b60008190508160005260206000209050919050565b60006020601f8301049050919050565b600082821b905092915050565b6000600883026115e27fffffffffffffffffffffffffffffffffffffffffffffffffffffffffffffffff826115a5565b6115ec86836115a5565b95508019841693508086168417925050509392505050565b6000819050919050565b600061162961162461161f8461104b565b611604565b61104b565b9050919050565b6000819050919050565b6116438361160e565b61165761164f82611630565b8484546115b2565b825550505050565b600090565b61166c61165f565b61167781848461163a565b505050565b5b8181101561169b57611690600082611664565b60018101905061167d565b5050565b601f8211156116e0576116b181611580565b6116ba84611595565b810160208510156116c9578190505b6116dd6116d585611595565b83018261167c565b50505b505050565b600082821c905092915050565b6000611703600019846008026116e5565b1980831691505092915050565b600061171c83836116f2565b9150826002028217905092915050565b6117358261127e565b67ffffffffffffffff81111561174e5761174d6114f1565b5b611758825461154f565b61176382828561169f565b600060209050601f8311600181146117965760008415611784578287015190505b61178e8582611710565b8655506117f6565b601f1984166117a486611580565b60005b828110156117cc578489015182556001820191506020850194506020810190506117a7565b868310156117e957848901516117e5601f8916826116f2565b8355505b6001600288020188555050505b505050505050565b82818337600083830152505050565b60006118198385611289565b93506118268385846117fe565b61182f836112c4565b840190509392505050565b600060c08201905061184f600083018a61126f565b61185c602083018961130e565b611869604083018861131d565b611876606083018761131d565b611883608083018661131d565b81810360a083015261189681848661180d565b905098975050505050505050565b7f4e4f5420454e4f55474800000000000000000000000000000000000000000000600082015250565b60006118da600a83611289565b91506118e5826118a4565b602082019050919050565b60006020820190508181036000830152611909816118cd565b9050919050565b7f414c52454144592048415050454e454400000000000000000000000000000000600082015250565b6000611946601083611289565b915061195182611910565b602082019050919050565b6000602082019050818103600083015261197581611939565b9050919050565b7f4556454e542046554c4c00000000000000000000000000000000000000000000600082015250565b60006119b2600a83611289565b91506119bd8261197c565b602082019050919050565b600060208201905081810360008301526119e1816119a5565b9050919050565b7f4e487b7100000000000000000000000000000000000000000000000000000000600052603260045260246000fd5b7f4e487b7100000000000000000000000000000000000000000000000000000000600052601160045260246000fd5b600060ff82169050919050565b6000611a5e82611a46565b915060ff8203611a7157611a70611a17565b5b600182019050919050565b6000604082019050611a91600083018561126f565b611a9e602083018461130e565b9392505050565b7f4e4f5420415554484f52495a4544000000000000000000000000000000000000600082015250565b6000611adb600e83611289565b9150611ae682611aa5565b602082019050919050565b60006020820190508181036000830152611b0a81611ace565b9050919050565b7f4e4f205253565020544f20434f4e4649524d0000000000000000000000000000600082015250565b6000611b47601283611289565b9150611b5282611b11565b602082019050919050565b60006020820190508181036000830152611b7681611b3a565b9050919050565b7f414c524541445920434c41494d45440000000000000000000000000000000000600082015250565b6000611bb3600f83611289565b9150611bbe82611b7d565b602082019050919050565b60006020820190508181036000830152611be281611ba6565b9050919050565b7f414c52454144592050414944204f555400000000000000000000000000000000600082015250565b6000611c1f601083611289565b9150611c2a82611be9565b602082019050919050565b60006020820190508181036000830152611c4e81611c12565b9050919050565b600081905092915050565b50565b6000611c70600083611c55565b9150611c7b82611c60565b600082019050919050565b6000611c9182611c63565b9150819050919050565b7f4e487b7100000000000000000000000000000000000000000000000000000000600052603160045260246000fd5b7f4554484552204e4f542053454e54000000000000000000000000000000000000600082015250565b6000611d00600e83611289565b9150611d0b82611cca565b602082019050919050565b60006020820190508181036000830152611d2f81611cf3565b9050919050565b7f414c524541445920504149440000000000000000000000000000000000000000600082015250565b6000611d6c600c83611289565b9150611d7782611d36565b602082019050919050565b60006020820190508181036000830152611d9b81611d5f565b9050919050565b6000611dad8261104b565b9150611db88361104b565b9250828201905080821115611dd057611dcf611a17565b5b92915050565b7f544f4f204541524c590000000000000000000000000000000000000000000000600082015250565b6000611e0c600983611289565b9150611e1782611dd6565b602082019050919050565b60006020820190508181036000830152611e3b81611dff565b9050919050565b6000611e4d8261104b565b9150611e588361104b565b9250828203905081811115611e7057611e6f611a17565b5b92915050565b6000611e818261104b565b9150611e8c8361104b565b9250828202611e9a8161104b565b91508282048414831517611eb157611eb0611a17565b5b5092915050565b7f5041594f5554204641494c454400000000000000000000000000000000000000600082015250565b6000611eee600d83611289565b9150611ef982611eb8565b602082019050919050565b60006020820190508181036000830152611f1d81611ee1565b9050919050565b6000602082019050611f39600083018461126f565b92915050565b7f554e415554484f52495a45440000000000000000000000000000000000000000600082015250565b6000611f75600c83611289565b9150611f8082611f3f565b602082019050919050565b60006020820190508181036000830152611fa481611f68565b905091905056fea26469706673582212200381831711583643cac6500f5ccbf0e90a2932f93cf4319cb2b2e784fab5132b64736f6c63430008110033",
    "linkReferences": {},
    "deployedLinkReferences": {}
}